{
  "contractName": "DAO",
  "abi": [
    {
      "inputs": [
        {
          "internalType": "uint256",
          "name": "_contributionTime",
          "type": "uint256"
        },
        {
          "internalType": "uint256",
          "name": "_voteTime",
          "type": "uint256"
        },
        {
          "internalType": "uint256",
          "name": "_quorum",
          "type": "uint256"
        }
      ],
      "stateMutability": "nonpayable",
      "type": "constructor"
    },
    {
      "inputs": [],
      "name": "admin",
      "outputs": [
        {
          "internalType": "address",
          "name": "",
          "type": "address"
        }
      ],
      "stateMutability": "view",
      "type": "function",
      "constant": true
    },
    {
      "inputs": [],
      "name": "availableFunds",
      "outputs": [
        {
          "internalType": "uint256",
          "name": "",
          "type": "uint256"
        }
      ],
      "stateMutability": "view",
      "type": "function",
      "constant": true
    },
    {
      "inputs": [],
      "name": "contributionEnd",
      "outputs": [
        {
          "internalType": "uint256",
          "name": "",
          "type": "uint256"
        }
      ],
      "stateMutability": "view",
      "type": "function",
      "constant": true
    },
    {
      "inputs": [
        {
          "internalType": "address",
          "name": "",
          "type": "address"
        }
      ],
      "name": "investors",
      "outputs": [
        {
          "internalType": "bool",
          "name": "",
          "type": "bool"
        }
      ],
      "stateMutability": "view",
      "type": "function",
      "constant": true
    },
    {
      "inputs": [],
      "name": "nextProposalId",
      "outputs": [
        {
          "internalType": "uint256",
          "name": "",
          "type": "uint256"
        }
      ],
      "stateMutability": "view",
      "type": "function",
      "constant": true
    },
    {
      "inputs": [
        {
          "internalType": "uint256",
          "name": "",
          "type": "uint256"
        }
      ],
      "name": "proposals",
      "outputs": [
        {
          "internalType": "uint256",
          "name": "id",
          "type": "uint256"
        },
        {
          "internalType": "string",
          "name": "name",
          "type": "string"
        },
        {
          "internalType": "uint256",
          "name": "amount",
          "type": "uint256"
        },
        {
          "internalType": "address payable",
          "name": "recipient",
          "type": "address"
        },
        {
          "internalType": "uint256",
          "name": "votes",
          "type": "uint256"
        },
        {
          "internalType": "uint256",
          "name": "end",
          "type": "uint256"
        },
        {
          "internalType": "bool",
          "name": "executed",
          "type": "bool"
        }
      ],
      "stateMutability": "view",
      "type": "function",
      "constant": true
    },
    {
      "inputs": [],
      "name": "quorum",
      "outputs": [
        {
          "internalType": "uint256",
          "name": "",
          "type": "uint256"
        }
      ],
      "stateMutability": "view",
      "type": "function",
      "constant": true
    },
    {
      "inputs": [
        {
          "internalType": "address",
          "name": "",
          "type": "address"
        }
      ],
      "name": "shares",
      "outputs": [
        {
          "internalType": "uint256",
          "name": "",
          "type": "uint256"
        }
      ],
      "stateMutability": "view",
      "type": "function",
      "constant": true
    },
    {
      "inputs": [],
      "name": "totalShares",
      "outputs": [
        {
          "internalType": "uint256",
          "name": "",
          "type": "uint256"
        }
      ],
      "stateMutability": "view",
      "type": "function",
      "constant": true
    },
    {
      "inputs": [],
      "name": "voteTime",
      "outputs": [
        {
          "internalType": "uint256",
          "name": "",
          "type": "uint256"
        }
      ],
      "stateMutability": "view",
      "type": "function",
      "constant": true
    },
    {
      "inputs": [
        {
          "internalType": "address",
          "name": "",
          "type": "address"
        },
        {
          "internalType": "uint256",
          "name": "",
          "type": "uint256"
        }
      ],
      "name": "votes",
      "outputs": [
        {
          "internalType": "bool",
          "name": "",
          "type": "bool"
        }
      ],
      "stateMutability": "view",
      "type": "function",
      "constant": true
    },
    {
      "stateMutability": "payable",
      "type": "receive",
      "payable": true
    },
    {
      "inputs": [],
      "name": "contribute",
      "outputs": [],
      "stateMutability": "payable",
      "type": "function",
      "payable": true
    },
    {
      "inputs": [
        {
          "internalType": "uint256",
          "name": "_amount",
          "type": "uint256"
        }
      ],
      "name": "redeemShare",
      "outputs": [],
      "stateMutability": "nonpayable",
      "type": "function"
    },
    {
      "inputs": [
        {
          "internalType": "uint256",
          "name": "_amount",
          "type": "uint256"
        },
        {
          "internalType": "address",
          "name": "_to",
          "type": "address"
        }
      ],
      "name": "transferShare",
      "outputs": [],
      "stateMutability": "nonpayable",
      "type": "function"
    },
    {
      "inputs": [
        {
          "internalType": "string",
          "name": "_name",
          "type": "string"
        },
        {
          "internalType": "uint256",
          "name": "_amount",
          "type": "uint256"
        },
        {
          "internalType": "address payable",
          "name": "_recipient",
          "type": "address"
        }
      ],
      "name": "createProposal",
      "outputs": [],
      "stateMutability": "nonpayable",
      "type": "function"
    },
    {
      "inputs": [
        {
          "internalType": "uint256",
          "name": "_proposalId",
          "type": "uint256"
        }
      ],
      "name": "vote",
      "outputs": [],
      "stateMutability": "nonpayable",
      "type": "function"
    },
    {
      "inputs": [
        {
          "internalType": "uint256",
          "name": "_proposalId",
          "type": "uint256"
        }
      ],
      "name": "executeProposal",
      "outputs": [],
      "stateMutability": "nonpayable",
      "type": "function"
    },
    {
      "inputs": [
        {
          "internalType": "uint256",
          "name": "_amount",
          "type": "uint256"
        },
        {
          "internalType": "address payable",
          "name": "_to",
          "type": "address"
        }
      ],
      "name": "withdrawEther",
      "outputs": [],
      "stateMutability": "nonpayable",
      "type": "function"
    }
  ],
  "bytecode": "0x60806040523480156200001157600080fd5b506040516200240d3803806200240d833981810160405281019062000037919062000136565b600081118015620000485750606481105b6200008a576040517f08c379a00000000000000000000000000000000000000000000000000000000081526004016200008190620001f3565b60405180910390fd5b824262000098919062000244565b600681905550816008819055508060098190555033600a60006101000a81548173ffffffffffffffffffffffffffffffffffffffff021916908373ffffffffffffffffffffffffffffffffffffffff160217905550505050620002a1565b600080fd5b6000819050919050565b6200011081620000fb565b81146200011c57600080fd5b50565b600081519050620001308162000105565b92915050565b600080600060608486031215620001525762000151620000f6565b5b600062000162868287016200011f565b935050602062000175868287016200011f565b925050604062000188868287016200011f565b9150509250925092565b600082825260208201905092915050565b7f71756f72756d206d757374206265206265747765656e203020616e6420313030600082015250565b6000620001db60208362000192565b9150620001e882620001a3565b602082019050919050565b600060208201905081810360008301526200020e81620001cc565b9050919050565b7f4e487b7100000000000000000000000000000000000000000000000000000000600052601160045260246000fd5b60006200025182620000fb565b91506200025e83620000fb565b9250827fffffffffffffffffffffffffffffffffffffffffffffffffffffffffffffffff0382111562000296576200029562000215565b5b828201905092915050565b61215c80620002b16000396000f3fe60806040526004361061010d5760003560e01c80636f7bc9be11610095578063ce56c45411610064578063ce56c45414610392578063ce7c2ac2146103bb578063d151b516146103f8578063d7bb99ba14610423578063f851a4401461042d5761012c565b80636f7bc9be146102c4578063868643df146103015780639f2524ee1461032a578063bcf93dd6146103675761012c565b80631703a018116100dc5780631703a018146101ef5780632ab09d141461021a5780633a98ef391461024557806346fcff4c146102705780636ac1e01f1461029b5761012c565b80630121b93f14610131578063013cf08b1461015a578063039383e61461019d5780630d61b519146101c65761012c565b3661012c573460056000828254610124919061142a565b925050819055005b600080fd5b34801561013d57600080fd5b50610158600480360381019061015391906114c0565b610458565b005b34801561016657600080fd5b50610181600480360381019061017c91906114c0565b6106b2565b60405161019497969594939291906115f1565b60405180910390f35b3480156101a957600080fd5b506101c460048036038101906101bf91906116a5565b6107a9565b005b3480156101d257600080fd5b506101ed60048036038101906101e891906114c0565b6109d1565b005b3480156101fb57600080fd5b50610204610bcc565b60405161021191906116e5565b60405180910390f35b34801561022657600080fd5b5061022f610bd2565b60405161023c91906116e5565b60405180910390f35b34801561025157600080fd5b5061025a610bd8565b60405161026791906116e5565b60405180910390f35b34801561027c57600080fd5b50610285610bde565b60405161029291906116e5565b60405180910390f35b3480156102a757600080fd5b506102c260048036038101906102bd9190611861565b610be4565b005b3480156102d057600080fd5b506102eb60048036038101906102e691906118d0565b610e11565b6040516102f891906118fd565b60405180910390f35b34801561030d57600080fd5b50610328600480360381019061032391906114c0565b610e31565b005b34801561033657600080fd5b50610351600480360381019061034c9190611918565b611069565b60405161035e91906118fd565b60405180910390f35b34801561037357600080fd5b5061037c611098565b60405161038991906116e5565b60405180910390f35b34801561039e57600080fd5b506103b960048036038101906103b49190611958565b61109e565b005b3480156103c757600080fd5b506103e260048036038101906103dd91906118d0565b61113c565b6040516103ef91906116e5565b60405180910390f35b34801561040457600080fd5b5061040d611154565b60405161041a91906116e5565b60405180910390f35b61042b61115a565b005b34801561043957600080fd5b5061044261127f565b60405161044f91906119a7565b60405180910390f35b600115156000803373ffffffffffffffffffffffffffffffffffffffff1673ffffffffffffffffffffffffffffffffffffffff16815260200190815260200160002060009054906101000a900460ff161515146104ea576040517f08c379a00000000000000000000000000000000000000000000000000000000081526004016104e190611a0e565b60405180910390fd5b600060026000838152602001908152602001600020905060001515600360003373ffffffffffffffffffffffffffffffffffffffff1673ffffffffffffffffffffffffffffffffffffffff168152602001908152602001600020600084815260200190815260200160002060009054906101000a900460ff161515146105a5576040517f08c379a000000000000000000000000000000000000000000000000000000000815260040161059c90611aa0565b60405180910390fd5b806005015442106105eb576040517f08c379a00000000000000000000000000000000000000000000000000000000081526004016105e290611b0c565b60405180910390fd5b6001600360003373ffffffffffffffffffffffffffffffffffffffff1673ffffffffffffffffffffffffffffffffffffffff168152602001908152602001600020600084815260200190815260200160002060006101000a81548160ff021916908315150217905550600160003373ffffffffffffffffffffffffffffffffffffffff1673ffffffffffffffffffffffffffffffffffffffff168152602001908152602001600020548160040160008282546106a7919061142a565b925050819055505050565b60026020528060005260406000206000915090508060000154908060010180546106db90611b5b565b80601f016020809104026020016040519081016040528092919081815260200182805461070790611b5b565b80156107545780601f1061072957610100808354040283529160200191610754565b820191906000526020600020905b81548152906001019060200180831161073757829003601f168201915b5050505050908060020154908060030160009054906101000a900473ffffffffffffffffffffffffffffffffffffffff16908060040154908060050154908060060160009054906101000a900460ff16905087565b81600160003373ffffffffffffffffffffffffffffffffffffffff1673ffffffffffffffffffffffffffffffffffffffff16815260200190815260200160002054101561082b576040517f08c379a000000000000000000000000000000000000000000000000000000000815260040161082290611bd8565b60405180910390fd5b81600160003373ffffffffffffffffffffffffffffffffffffffff1673ffffffffffffffffffffffffffffffffffffffff168152602001908152602001600020600082825461087a9190611bf8565b925050819055506000600160003373ffffffffffffffffffffffffffffffffffffffff1673ffffffffffffffffffffffffffffffffffffffff16815260200190815260200160002054036109205760008060003373ffffffffffffffffffffffffffffffffffffffff1673ffffffffffffffffffffffffffffffffffffffff16815260200190815260200160002060006101000a81548160ff0219169083151502179055505b81600160008373ffffffffffffffffffffffffffffffffffffffff1673ffffffffffffffffffffffffffffffffffffffff168152602001908152602001600020600082825461096f919061142a565b9250508190555060016000808373ffffffffffffffffffffffffffffffffffffffff1673ffffffffffffffffffffffffffffffffffffffff16815260200190815260200160002060006101000a81548160ff0219169083151502179055505050565b600a60009054906101000a900473ffffffffffffffffffffffffffffffffffffffff1673ffffffffffffffffffffffffffffffffffffffff163373ffffffffffffffffffffffffffffffffffffffff1614610a61576040517f08c379a0000000000000000000000000000000000000000000000000000000008152600401610a5890611c78565b60405180910390fd5b60006002600083815260200190815260200160002090508060050154421015610abf576040517f08c379a0000000000000000000000000000000000000000000000000000000008152600401610ab690611d0a565b60405180910390fd5b600015158160060160009054906101000a900460ff16151514610b17576040517f08c379a0000000000000000000000000000000000000000000000000000000008152600401610b0e90611d9c565b60405180910390fd5b60095460646004548360040154610b2e9190611deb565b610b389190611e1c565b1015610b79576040517f08c379a0000000000000000000000000000000000000000000000000000000008152600401610b7090611ee8565b60405180910390fd5b60018160060160006101000a81548160ff021916908315150217905550610bc881600201548260030160009054906101000a900473ffffffffffffffffffffffffffffffffffffffff166112a5565b5050565b60095481565b60075481565b60045481565b60055481565b600115156000803373ffffffffffffffffffffffffffffffffffffffff1673ffffffffffffffffffffffffffffffffffffffff16815260200190815260200160002060009054906101000a900460ff16151514610c76576040517f08c379a0000000000000000000000000000000000000000000000000000000008152600401610c6d90611a0e565b60405180910390fd5b816005541015610cbb576040517f08c379a0000000000000000000000000000000000000000000000000000000008152600401610cb290611f54565b60405180910390fd5b6040518060e0016040528060075481526020018481526020018381526020018273ffffffffffffffffffffffffffffffffffffffff1681526020016000815260200160085442610d0b919061142a565b815260200160001515815250600260006007548152602001908152602001600020600082015181600001556020820151816001019080519060200190610d5292919061134e565b506040820151816002015560608201518160030160006101000a81548173ffffffffffffffffffffffffffffffffffffffff021916908373ffffffffffffffffffffffffffffffffffffffff1602179055506080820151816004015560a0820151816005015560c08201518160060160006101000a81548160ff0219169083151502179055509050508160056000828254610ded9190611bf8565b9250508190555060076000815480929190610e0790611f74565b9190505550505050565b60006020528060005260406000206000915054906101000a900460ff1681565b80600160003373ffffffffffffffffffffffffffffffffffffffff1673ffffffffffffffffffffffffffffffffffffffff168152602001908152602001600020541015610eb3576040517f08c379a0000000000000000000000000000000000000000000000000000000008152600401610eaa90611bd8565b60405180910390fd5b806005541015610ef8576040517f08c379a0000000000000000000000000000000000000000000000000000000008152600401610eef90612008565b60405180910390fd5b80600160003373ffffffffffffffffffffffffffffffffffffffff1673ffffffffffffffffffffffffffffffffffffffff1681526020019081526020016000206000828254610f479190611bf8565b925050819055506000600160003373ffffffffffffffffffffffffffffffffffffffff1673ffffffffffffffffffffffffffffffffffffffff1681526020019081526020016000205403610fed5760008060003373ffffffffffffffffffffffffffffffffffffffff1673ffffffffffffffffffffffffffffffffffffffff16815260200190815260200160002060006101000a81548160ff0219169083151502179055505b8060046000828254610fff9190611bf8565b9250508190555080600560008282546110189190611bf8565b925050819055503373ffffffffffffffffffffffffffffffffffffffff166108fc829081150290604051600060405180830381858888f19350505050158015611065573d6000803e3d6000fd5b5050565b60036020528160005260406000206020528060005260406000206000915091509054906101000a900460ff1681565b60085481565b600a60009054906101000a900473ffffffffffffffffffffffffffffffffffffffff1673ffffffffffffffffffffffffffffffffffffffff163373ffffffffffffffffffffffffffffffffffffffff161461112e576040517f08c379a000000000000000000000000000000000000000000000000000000000815260040161112590611c78565b60405180910390fd5b61113882826112a5565b5050565b60016020528060005260406000206000915090505481565b60065481565b600654421061119e576040517f08c379a00000000000000000000000000000000000000000000000000000000081526004016111959061209a565b60405180910390fd5b60016000803373ffffffffffffffffffffffffffffffffffffffff1673ffffffffffffffffffffffffffffffffffffffff16815260200190815260200160002060006101000a81548160ff02191690831515021790555034600160003373ffffffffffffffffffffffffffffffffffffffff1673ffffffffffffffffffffffffffffffffffffffff1681526020019081526020016000206000828254611244919061142a565b92505081905550346004600082825461125d919061142a565b925050819055503460056000828254611276919061142a565b92505081905550565b600a60009054906101000a900473ffffffffffffffffffffffffffffffffffffffff1681565b6005548211156112ea576040517f08c379a00000000000000000000000000000000000000000000000000000000081526004016112e190612106565b60405180910390fd5b81600560008282546112fc9190611bf8565b925050819055508073ffffffffffffffffffffffffffffffffffffffff166108fc839081150290604051600060405180830381858888f19350505050158015611349573d6000803e3d6000fd5b505050565b82805461135a90611b5b565b90600052602060002090601f01602090048101928261137c57600085556113c3565b82601f1061139557805160ff19168380011785556113c3565b828001600101855582156113c3579182015b828111156113c25782518255916020019190600101906113a7565b5b5090506113d091906113d4565b5090565b5b808211156113ed5760008160009055506001016113d5565b5090565b6000819050919050565b7f4e487b7100000000000000000000000000000000000000000000000000000000600052601160045260246000fd5b6000611435826113f1565b9150611440836113f1565b9250827fffffffffffffffffffffffffffffffffffffffffffffffffffffffffffffffff03821115611475576114746113fb565b5b828201905092915050565b6000604051905090565b600080fd5b600080fd5b61149d816113f1565b81146114a857600080fd5b50565b6000813590506114ba81611494565b92915050565b6000602082840312156114d6576114d561148a565b5b60006114e4848285016114ab565b91505092915050565b6114f6816113f1565b82525050565b600081519050919050565b600082825260208201905092915050565b60005b8381101561153657808201518184015260208101905061151b565b83811115611545576000848401525b50505050565b6000601f19601f8301169050919050565b6000611567826114fc565b6115718185611507565b9350611581818560208601611518565b61158a8161154b565b840191505092915050565b600073ffffffffffffffffffffffffffffffffffffffff82169050919050565b60006115c082611595565b9050919050565b6115d0816115b5565b82525050565b60008115159050919050565b6115eb816115d6565b82525050565b600060e082019050611606600083018a6114ed565b8181036020830152611618818961155c565b905061162760408301886114ed565b61163460608301876115c7565b61164160808301866114ed565b61164e60a08301856114ed565b61165b60c08301846115e2565b98975050505050505050565b600061167282611595565b9050919050565b61168281611667565b811461168d57600080fd5b50565b60008135905061169f81611679565b92915050565b600080604083850312156116bc576116bb61148a565b5b60006116ca858286016114ab565b92505060206116db85828601611690565b9150509250929050565b60006020820190506116fa60008301846114ed565b92915050565b600080fd5b600080fd5b7f4e487b7100000000000000000000000000000000000000000000000000000000600052604160045260246000fd5b6117428261154b565b810181811067ffffffffffffffff821117156117615761176061170a565b5b80604052505050565b6000611774611480565b90506117808282611739565b919050565b600067ffffffffffffffff8211156117a05761179f61170a565b5b6117a98261154b565b9050602081019050919050565b82818337600083830152505050565b60006117d86117d384611785565b61176a565b9050828152602081018484840111156117f4576117f3611705565b5b6117ff8482856117b6565b509392505050565b600082601f83011261181c5761181b611700565b5b813561182c8482602086016117c5565b91505092915050565b61183e816115b5565b811461184957600080fd5b50565b60008135905061185b81611835565b92915050565b60008060006060848603121561187a5761187961148a565b5b600084013567ffffffffffffffff8111156118985761189761148f565b5b6118a486828701611807565b93505060206118b5868287016114ab565b92505060406118c68682870161184c565b9150509250925092565b6000602082840312156118e6576118e561148a565b5b60006118f484828501611690565b91505092915050565b600060208201905061191260008301846115e2565b92915050565b6000806040838503121561192f5761192e61148a565b5b600061193d85828601611690565b925050602061194e858286016114ab565b9150509250929050565b6000806040838503121561196f5761196e61148a565b5b600061197d858286016114ab565b925050602061198e8582860161184c565b9150509250929050565b6119a181611667565b82525050565b60006020820190506119bc6000830184611998565b92915050565b7f6f6e6c7920696e766573746f7273000000000000000000000000000000000000600082015250565b60006119f8600e83611507565b9150611a03826119c2565b602082019050919050565b60006020820190508181036000830152611a27816119eb565b9050919050565b7f696e766573746f722063616e206f6e6c7920766f7465206f6e636520666f722060008201527f612070726f706f73616c00000000000000000000000000000000000000000000602082015250565b6000611a8a602a83611507565b9150611a9582611a2e565b604082019050919050565b60006020820190508181036000830152611ab981611a7d565b9050919050565b7f63616e206f6e6c7920766f746520756e74696c2070726f706f73616c20656e64600082015250565b6000611af6602083611507565b9150611b0182611ac0565b602082019050919050565b60006020820190508181036000830152611b2581611ae9565b9050919050565b7f4e487b7100000000000000000000000000000000000000000000000000000000600052602260045260246000fd5b60006002820490506001821680611b7357607f821691505b602082108103611b8657611b85611b2c565b5b50919050565b7f6e6f7420656e6f75676820736861726573000000000000000000000000000000600082015250565b6000611bc2601183611507565b9150611bcd82611b8c565b602082019050919050565b60006020820190508181036000830152611bf181611bb5565b9050919050565b6000611c03826113f1565b9150611c0e836113f1565b925082821015611c2157611c206113fb565b5b828203905092915050565b7f6f6e6c792061646d696e00000000000000000000000000000000000000000000600082015250565b6000611c62600a83611507565b9150611c6d82611c2c565b602082019050919050565b60006020820190508181036000830152611c9181611c55565b9050919050565b7f63616e6e6f74206578656375746520612070726f706f73616c206265666f726560008201527f20656e6420646174650000000000000000000000000000000000000000000000602082015250565b6000611cf4602983611507565b9150611cff82611c98565b604082019050919050565b60006020820190508181036000830152611d2381611ce7565b9050919050565b7f63616e6e6f74206578656375746520612070726f706f73616c20616c7265616460008201527f7920657865637574656400000000000000000000000000000000000000000000602082015250565b6000611d86602a83611507565b9150611d9182611d2a565b604082019050919050565b60006020820190508181036000830152611db581611d79565b9050919050565b7f4e487b7100000000000000000000000000000000000000000000000000000000600052601260045260246000fd5b6000611df6826113f1565b9150611e01836113f1565b925082611e1157611e10611dbc565b5b828204905092915050565b6000611e27826113f1565b9150611e32836113f1565b9250817fffffffffffffffffffffffffffffffffffffffffffffffffffffffffffffffff0483118215151615611e6b57611e6a6113fb565b5b828202905092915050565b7f63616e6e6f74206578656375746520612070726f706f73616c2077697468207660008201527f6f7465732062656c6f772071756f72756d000000000000000000000000000000602082015250565b6000611ed2603183611507565b9150611edd82611e76565b604082019050919050565b60006020820190508181036000830152611f0181611ec5565b9050919050565b7f616d6f756e7420746f6f20626967000000000000000000000000000000000000600082015250565b6000611f3e600e83611507565b9150611f4982611f08565b602082019050919050565b60006020820190508181036000830152611f6d81611f31565b9050919050565b6000611f7f826113f1565b91507fffffffffffffffffffffffffffffffffffffffffffffffffffffffffffffffff8203611fb157611fb06113fb565b5b600182019050919050565b7f6e6f7420656e6f75676820617661696c61626c652066756e6473000000000000600082015250565b6000611ff2601a83611507565b9150611ffd82611fbc565b602082019050919050565b6000602082019050818103600083015261202181611fe5565b9050919050565b7f63616e6e6f7420636f6e7472696275746520616674657220636f6e747269627560008201527f74696f6e20656e64000000000000000000000000000000000000000000000000602082015250565b6000612084602883611507565b915061208f82612028565b604082019050919050565b600060208201905081810360008301526120b381612077565b9050919050565b7f6e6f7420656e6f75676820617661696c61626c6546756e647300000000000000600082015250565b60006120f0601983611507565b91506120fb826120ba565b602082019050919050565b6000602082019050818103600083015261211f816120e3565b905091905056fea264697066735822122089792c6f6fc39b70d496a986aea9eee2f44b08b9386968525984120a9314c38964736f6c634300080e0033",
  "immutableReferences": {},
  "source": "// SPDX-License-Identifier: MIT\r\npragma solidity ^0.8.0;\r\n\r\ncontract DAO {\r\n    // DAO contract:\r\n    // 1. Collects investors money (ether)\r\n    // 2. Keep track of investor contributions with shares\r\n    // 3. Allow investors to transfer shares\r\n    // 4. Allow investment proposals to be created and voted\r\n    // 5. Execute successful investment proposals (i.e. send money)\r\n\r\n    struct Proposal {\r\n        uint256 id;\r\n        string name;\r\n        uint256 amount;\r\n        address payable recipient;\r\n        uint256 votes;\r\n        uint256 end;\r\n        bool executed;\r\n    }\r\n    mapping(address => bool) public investors;\r\n    mapping(address => uint256) public shares;\r\n    mapping(uint256 => Proposal) public proposals;\r\n    mapping(address => mapping(uint256 => bool)) public votes;\r\n    uint256 public totalShares;\r\n    uint256 public availableFunds;\r\n    uint256 public contributionEnd;\r\n    uint256 public nextProposalId;\r\n    uint256 public voteTime;\r\n    uint256 public quorum;\r\n    address public admin;\r\n\r\n    constructor(\r\n        uint256 _contributionTime,\r\n        uint256 _voteTime,\r\n        uint256 _quorum\r\n    ) {\r\n        require(\r\n            _quorum > 0 && _quorum < 100,\r\n            \"quorum must be between 0 and 100\"\r\n        );\r\n        contributionEnd = block.timestamp + _contributionTime;\r\n        voteTime = _voteTime;\r\n        quorum = _quorum;\r\n        admin = msg.sender;\r\n    }\r\n\r\n    function contribute() external payable {\r\n        require(\r\n            block.timestamp < contributionEnd,\r\n            \"cannot contribute after contribution end\"\r\n        );\r\n        investors[msg.sender] = true;\r\n        shares[msg.sender] += msg.value; // 1 wei = 1 share\r\n        totalShares += msg.value;\r\n        availableFunds += msg.value;\r\n    }\r\n\r\n    function redeemShare(uint256 _amount) external {\r\n        require(shares[msg.sender] >= _amount, \"not enough shares\");\r\n        require(availableFunds >= _amount, \"not enough available funds\");\r\n        shares[msg.sender] -= _amount;\r\n        if (shares[msg.sender] == 0) {\r\n            investors[msg.sender] = false;\r\n        }\r\n        totalShares -= _amount;\r\n        availableFunds -= _amount;\r\n        payable(msg.sender).transfer(_amount);\r\n    }\r\n\r\n    function transferShare(uint256 _amount, address _to) external {\r\n        require(shares[msg.sender] >= _amount, \"not enough shares\");\r\n        shares[msg.sender] -= _amount;\r\n        if (shares[msg.sender] == 0) {\r\n            investors[msg.sender] = false;\r\n        }\r\n        shares[_to] += _amount;\r\n        investors[_to] = true;\r\n    }\r\n\r\n    function createProposal(\r\n        string memory _name,\r\n        uint256 _amount,\r\n        address payable _recipient\r\n    ) external onlyInvestors {\r\n        require(availableFunds >= _amount, \"amount too big\");\r\n        proposals[nextProposalId] = Proposal(\r\n            nextProposalId,\r\n            _name,\r\n            _amount,\r\n            _recipient,\r\n            0,\r\n            block.timestamp + voteTime,\r\n            false\r\n        );\r\n        availableFunds -= _amount;\r\n        nextProposalId++;\r\n    }\r\n\r\n    function vote(uint256 _proposalId) external onlyInvestors {\r\n        Proposal storage proposal = proposals[_proposalId];\r\n        require(\r\n            votes[msg.sender][_proposalId] == false,\r\n            \"investor can only vote once for a proposal\"\r\n        );\r\n        require(\r\n            block.timestamp < proposal.end,\r\n            \"can only vote until proposal end\"\r\n        );\r\n        votes[msg.sender][_proposalId] = true;\r\n        proposal.votes += shares[msg.sender];\r\n    }\r\n\r\n    function executeProposal(uint256 _proposalId) external onlyAdmin {\r\n        Proposal storage proposal = proposals[_proposalId];\r\n        require(\r\n            block.timestamp >= proposal.end,\r\n            \"cannot execute a proposal before end date\"\r\n        );\r\n        require(\r\n            proposal.executed == false,\r\n            \"cannot execute a proposal already executed\"\r\n        );\r\n        require(\r\n            (proposal.votes / totalShares) * 100 >= quorum,\r\n            \"cannot execute a proposal with votes below quorum\"\r\n        );\r\n        proposal.executed = true;\r\n        _transferEther(proposal.amount, proposal.recipient);\r\n    }\r\n\r\n    function withdrawEther(uint256 _amount, address payable _to)\r\n        external\r\n        onlyAdmin\r\n    {\r\n        _transferEther(_amount, _to);\r\n    }\r\n\r\n    function _transferEther(uint256 _amount, address payable _to) internal {\r\n        require(_amount <= availableFunds, \"not enough availableFunds\");\r\n        availableFunds -= _amount;\r\n        _to.transfer(_amount);\r\n    }\r\n\r\n    // for ether returns of proposal investments\r\n    receive() external payable {\r\n        availableFunds += msg.value;\r\n    }\r\n\r\n    modifier onlyInvestors() {\r\n        require(investors[msg.sender] == true, \"only investors\");\r\n        _;\r\n    }\r\n\r\n    modifier onlyAdmin() {\r\n        require(msg.sender == admin, \"only admin\");\r\n        _;\r\n    }\r\n}\r\n",
  "sourcePath": "C:\\Users\\eduar\\Documents\\Cursos\\Blockchain\\Eat the Blocks\\Dapp 30\\9 - DAO\\contracts\\DAO.sol",
  "compiler": {
    "name": "solc",
    "version": "0.8.14+commit.80d49f37.Emscripten.clang"
  },
  "schemaVersion": "3.4.7",
  "updatedAt": "2022-07-25T19:48:50.570Z",
  "networkType": "ethereum",
  "devdoc": {
    "kind": "dev",
    "methods": {},
    "version": 1
  },
  "userdoc": {
    "kind": "user",
    "methods": {},
    "version": 1
  }
}